{
  "transactions": [
    {
      "hash": "0x78c0ad10322b0530defffdbb26ab39c2fd4466065cfa5e87bc6ada39f45a40c3",
      "transactionType": "CALL",
      "contractName": null,
      "contractAddress": "0x779877a7b0d9e8603169ddbd7836e478b4624789",
      "function": "transferAndCall(address,uint256,bytes)",
      "arguments": [
        "0x9DdfaCa8183c41ad55329BdeeD9F6A8d53168B1B",
        "2000000000000000",
        "0xad116ff9ebc45cce50561efdc64669d7b731500dcc988d80437399ca2f17eb30"
      ],
      "transaction": {
        "from": "0xe9a899f69579730a1a3ce9809b800f18dd4f3539",
        "to": "0x779877a7b0d9e8603169ddbd7836e478b4624789",
        "gas": "0x1603d",
        "value": "0x0",
        "input": "0x4000aea00000000000000000000000009ddfaca8183c41ad55329bdeed9f6a8d53168b1b00000000000000000000000000000000000000000000000000071afd498d000000000000000000000000000000000000000000000000000000000000000000600000000000000000000000000000000000000000000000000000000000000020ad116ff9ebc45cce50561efdc64669d7b731500dcc988d80437399ca2f17eb30",
        "nonce": "0x2",
        "chainId": "0xaa36a7"
      },
      "additionalContracts": [],
      "isFixedGasLimit": false
    }
  ],
  "receipts": [
    {
      "status": "0x1",
      "cumulativeGasUsed": "0x17d7aaf",
      "logs": [
        {
          "address": "0x779877a7b0d9e8603169ddbd7836e478b4624789",
          "topics": [
            "0xddf252ad1be2c89b69c2b068fc378daa952ba7f163c4a11628f55a4df523b3ef",
            "0x000000000000000000000000e9a899f69579730a1a3ce9809b800f18dd4f3539",
            "0x0000000000000000000000009ddfaca8183c41ad55329bdeed9f6a8d53168b1b"
          ],
          "data": "0x00000000000000000000000000000000000000000000000000071afd498d0000",
          "blockHash": "0x5461f65e90bdac9f07eff3880b32126ed3e11f83a6d55e6ba68bfceae0314287",
          "blockNumber": "0x6841eb",
          "transactionHash": "0x78c0ad10322b0530defffdbb26ab39c2fd4466065cfa5e87bc6ada39f45a40c3",
          "transactionIndex": "0x5b",
          "logIndex": "0xa9",
          "removed": false
        },
        {
          "address": "0x779877a7b0d9e8603169ddbd7836e478b4624789",
          "topics": [
            "0xe19260aff97b920c7df27010903aeb9c8d2be5d310a2c67824cf3f15396e4c16",
            "0x000000000000000000000000e9a899f69579730a1a3ce9809b800f18dd4f3539",
            "0x0000000000000000000000009ddfaca8183c41ad55329bdeed9f6a8d53168b1b"
          ],
          "data": "0x00000000000000000000000000000000000000000000000000071afd498d000000000000000000000000000000000000000000000000000000000000000000400000000000000000000000000000000000000000000000000000000000000020ad116ff9ebc45cce50561efdc64669d7b731500dcc988d80437399ca2f17eb30",
          "blockHash": "0x5461f65e90bdac9f07eff3880b32126ed3e11f83a6d55e6ba68bfceae0314287",
          "blockNumber": "0x6841eb",
          "transactionHash": "0x78c0ad10322b0530defffdbb26ab39c2fd4466065cfa5e87bc6ada39f45a40c3",
          "transactionIndex": "0x5b",
          "logIndex": "0xaa",
          "removed": false
        },
        {
          "address": "0x9ddfaca8183c41ad55329bdeed9f6a8d53168b1b",
          "topics": [
            "0x1ced9348ff549fceab2ac57cd3a9de38edaaab274b725ee82c23e8fc8c4eec7a",
            "0xad116ff9ebc45cce50561efdc64669d7b731500dcc988d80437399ca2f17eb30"
          ],
          "data": "0x0000000000000000000000000000000000000000000000006124fee993bc0000000000000000000000000000000000000000000000000000612c19e6dd490000",
          "blockHash": "0x5461f65e90bdac9f07eff3880b32126ed3e11f83a6d55e6ba68bfceae0314287",
          "blockNumber": "0x6841eb",
          "transactionHash": "0x78c0ad10322b0530defffdbb26ab39c2fd4466065cfa5e87bc6ada39f45a40c3",
          "transactionIndex": "0x5b",
          "logIndex": "0xab",
          "removed": false
        }
      ],
      "logsBloom": "0x00080004000000000000000000000000000000000020000000000000020000000000000000000000000004000000000000000000000000000000000000000000000008000000000000000008000000000000000000000000000020000020000008000000000000000000000200000000000000004000000000002010000040000000000000000000000000010000800000000020000000000000000000000000000000000000000000000000010000000000000000000000000004000000000000000002000000000000000000000000000000000000000100000000000000000010000000000000800000000000000000000000000000000000000000000000",
      "type": "0x2",
      "transactionHash": "0x78c0ad10322b0530defffdbb26ab39c2fd4466065cfa5e87bc6ada39f45a40c3",
      "transactionIndex": "0x5b",
      "blockHash": "0x5461f65e90bdac9f07eff3880b32126ed3e11f83a6d55e6ba68bfceae0314287",
      "blockNumber": "0x6841eb",
      "gasUsed": "0xf0d9",
      "effectiveGasPrice": "0x1ecd7f05b4",
      "from": "0xe9a899f69579730a1a3ce9809b800f18dd4f3539",
      "to": "0x779877a7b0d9e8603169ddbd7836e478b4624789",
      "contractAddress": null
    }
  ],
  "libraries": [],
  "pending": [],
  "returns": {},
  "timestamp": 1728310203,
  "chain": 11155111,
  "commit": "28c4807"
}